:100000000C945D000C9485000C9485000C94850084
:100010000C9485000C9485000C9485000C9485004C
:100020000C9485000C9485000C9485000C940204BB
:100030000C9485000C9485000C9485000C9485002C
:100040000C94C1070C9485000C94A6020C948002B9
:100050000C9485000C9485000C9485000C9485000C
:100060000C94D8020C9485000000000800020100E6
:100070000003040700000000000000000000000072
:10008000250028002B0000000000240027002A0083
:10009000040404040404040402020202020203032E
:1000A0000303030301020408102040800102040836
:1000B0001020010204081020690B11241FBECFEF8D
:1000C000D8E0DEBFCDBF11E0A0E0B1E0E0E5F9E1AE
:1000D00002C005900D92A835B107D9F723E0A8E535
:1000E000B1E001C01D92A130B207E1F710E0CDE50B
:1000F000D0E004C02197FE010E949B0CCC35D107B3
:10010000C9F70E940B080C94A60C0C940000CF9227
:10011000DF92EF92FF920F931F93CF93DF936C01C7
:100120007A018B01C0E0D0E0CE15DF0581F0D80167
:100130006D918D01D601ED91FC910190F081E02D42
:10014000C6010995892B11F02196EECF7E01C701DA
:10015000DF91CF911F910F91FF90EF90DF90CF90A3
:100160000895FC01538D448D252F30E0842F90E0BD
:10017000821B930B541710F0CF96089501970895A2
:10018000FC01918D828D981761F0828DDF01A80F9F
:10019000B11D5D968C91928D9F5F9F73928F90E0C1
:1001A00008958FEF9FEF0895FC01918D828D981730
:1001B00031F0828DE80FF11D858D90E008958FEF6D
:1001C0009FEF0895FC01918D228D892F90E0805C36
:1001D0009F4F821B91098F73992708958FE092E0BA
:1001E0000E94E20021E0892B09F420E0822F08958B
:1001F000FC01848DDF01A80FB11DA35ABF4F2C91C4
:10020000848D90E001968F739927848FA689B78992
:100210002C93A089B1898C91837080648C93938D89
:10022000848D981306C00288F389E02D80818F7D2C
:1002300080830895EF92FF920F931F93CF93DF93E4
:10024000EC0181E0888F9B8D8C8D981305C0E88927
:10025000F989808185FD26C0F62E0B8D10E00F5F99
:100260001F4F0F731127E02E8C8DE8120CC00FB6B4
:1002700007FCFACFE889F989808185FFF5CFCE01A7
:100280000E94F800F1CF8B8DFE01E80FF11DE35ABB
:10029000FF4FF0829FB7F8940B8FEA89FB8980812A
:1002A00080620AC09FB7F894EE89FF896083E8896D
:1002B000F98980818370806480839FBF81E090E0B2
:1002C000DF91CF911F910F91FF90EF900895CF9301
:1002D000DF93EC01888D8823C9F0EA89FB8980814E
:1002E00085FD05C0A889B9898C9186FD0FC00FB620
:1002F00007FCF5CF808185FFF2CFA889B9898C9161
:1003000085FFEDCFCE010E94F800E7CFDF91CF91BE
:10031000089580E090E0892B29F00E94EE00811181
:100320000C940000089585ED8093BC008091BC0082
:1003300084FDFCCF1092E601089540917901262FAB
:1003400030E0240F311D21323105DCF42091E6012B
:100350002430C9F4FC0180E090E0861758F4309115
:1003600079012191DC01A75ABE4FA30FB11D2C9337
:100370000196F3CF80917901680F6093790180E055
:10038000089581E0089582E008950895E091E801DC
:100390008091E701E81730F4F0E0E751FE4F8081EB
:1003A00090E008958FEF9FEF08959091E80180917C
:1003B000E701981750F4E92FF0E0E751FE4F208154
:1003C00030E09F5F9093E80102C02FEF3FEFC9013B
:1003D00008958091E70190E02091E801821B910946
:1003E0000895CF92DF92EF92FF920F931F93CF93D6
:1003F000DF937C01CB018A0120919C01222389F0AB
:10040000EB016B01C40ED51ECC15DD0569F06991B9
:10041000D701ED91FC910190F081E02DC701099584
:10042000F3CF642F0E949D01C801DF91CF911F91EE
:100430000F91FF90EF90DF90CF900895CF93DF93CF
:100440001F92CDB7DEB7698320919C012223D1F0A2
:100450002091BF01203240F021E030E0FC013383E5
:10046000228380E090E015C080919D01E82FF0E0AC
:10047000E256FE4F998190838F5F80939D01809318
:10048000BF0105C061E0CE0101960E949D0181E09F
:1004900090E00F90DF91CF910895089580E090E073
:1004A0000895CF93DF93EC0160E08E810E94D20625
:1004B00061E08E810E94D20660E08E810E94D206A9
:1004C0008BE891E00197F1F7DF91CF9108950E94B9
:1004D000A10C6115710579F0FB0101900020E9F78D
:1004E0003197AF01461B570BDC01ED91FC91028067
:1004F000F381E02D099480E090E008950C94690266
:100500001F920F920FB60F9211242F933F934F9388
:100510005F936F937F938F939F93AF93BF93EF936B
:10052000FF938FE092E00E94F800FF91EF91BF915E
:10053000AF919F918F917F916F915F914F913F917B
:100540002F910F900FBE0F901F9018951F920F9232
:100550000FB60F9211242F938F939F93EF93FF93D6
:10056000E0911F02F09120028081E0912502F0913C
:10057000260282FD12C09081809128028F5F8F73C6
:1005800020912902821751F0E0912802F0E0E15F0A
:10059000FD4F958F8093280201C08081FF91EF91DC
:1005A0009F918F912F910F900FBE0F901F901895D4
:1005B0001F920F920FB60F9211242F933F934F93D8
:1005C0005F936F937F938F939F93AF93BF93EF93BB
:1005D000FF938091B900887F803609F49CC068F54C
:1005E000883209F45BC090F4803109F454C038F4C7
:1005F000882309F4F2C0883009F44DC0F2C0883174
:1006000009F44CC0803209F45DC0EBC0803409F4B9
:1006100068C048F4803309F455C0883309F0E1C05C
:100620008093E401D4C0803509F44FC0883509F4C3
:100630005DC0883409F0D5C0D2C0883909F4C3C080
:10064000A8F4883709F467C038F4883609F463C021
:10065000803709F460C0C5C0883809F4B4C0803957
:1006600009F45FC0803809F0BCC05BC0803B09F46E
:1006700084C038F4803A09F466C0883A09F47DC031
:10068000B0C0803C09F4A3C0883C09F4A0C0883BFA
:1006900009F486C0A6C08091E10110C09091E301E9
:1006A0008091E201981770F5E091E30181E08E0FEF
:1006B0008093E301F0E0E054FE4F80818093BB0023
:1006C00085EC82C08093E4018AC0E091E30181E07F
:1006D0008E0F8093E3018091BB00F0E0E054FE4F69
:1006E00080839091E3018091E2016AC0E091E3018F
:1006F00081E08E0F8093E3018091BB00F0E0E05435
:10070000FE4F80838091E501811169C081E0809373
:10071000E00184EA5DC083E08093E60110929B01D2
:10072000CFCF80919B01803208F04DC0E0919B01BA
:1007300081E08E0F80939B018091BB00F0E0E55833
:10074000FE4F8083BDCF85EC8093BC001092E60104
:1007500080919B01803230F4E0919B01F0E0E558FC
:10076000FE4F108260919B0170E08BE791E0E0E02A
:10077000F0E0099510929B0134C084E08093E6017B
:1007800010927A0110927901E0E0F0E009958091F1
:100790007901811105C081E080937901109259019E
:1007A000E0917A0181E08E0F80937A01F0E0E75AC0
:1007B000FE4F80818093BB0090917A0180917901F6
:1007C000981708F47DCF85E88093BC000AC085ECBB
:1007D0008093BC001092E60104C01092E4010E94D4
:1007E0009301FF91EF91BF91AF919F918F917F9175
:1007F0006F915F914F913F912F910F900FBE0F908E
:100800001F9018951F920F920FB60F9211242F93DD
:100810003F934F935F936F937F938F939F93AF9388
:10082000BF93EF93FF938091580187FF05C010920B
:100830008500109284001BC020915801022E000CEC
:10084000330B8091DC0290E02817390784F4809103
:100850005801082E000C990BFC01EE0FFF1F8E0FA4
:100860009F1FFC01E854FD4F808186FD15C08091DB
:1008700058018F5F8093580120915801022E000C7F
:10088000330B8091DC0290E028173907C4F4809183
:1008900058018C3064F113C080915801082E000C6F
:1008A000990BFC01EE0FFF1F8E0F9F1FFC01E854F8
:1008B000FD4F808160E08F730E94D206D8CF809177
:1008C000840090918500049680349C4918F480E45B
:1008D0009CE905C0809184009091850004969093D6
:1008E0008900809388008FEF809358013BC020914E
:1008F00084003091850080915801082E000C990BDE
:10090000FC01EE0FFF1F8E0F9F1FFC01E854FD4FEF
:1009100081819281820F931F909389008093880038
:1009200080915801082E000C990BFC01EE0FFF1F5F
:100930008E0F9F1FFC01E854FD4F808186FF12C07F
:1009400080915801082E000C990BFC01EE0FFF1F3F
:100950008E0F9F1FFC01E854FD4F808161E08F7373
:100960000E94D206FF91EF91BF91AF919F918F911D
:100970007F916F915F914F913F912F910F900FBE9B
:100980000F901F901895CF92DF92EF92FF920F93E6
:100990001F93CF93DF936C017C0187E0E80EF11C7D
:1009A000C0E0D0E0062F10E0B8010C2E02C0759513
:1009B00067950A94E2F76170F70181917F010E94C7
:1009C000D2062196C430D10579F7C601DF91CF91C7
:1009D0001F910F91FF90EF90DF90CF900C945102F8
:1009E000CF92DF92EF92FF920F931F93CF93DF93FB
:1009F000EC01F62E642F8C810E94D2068D818F3FF0
:100A000019F060E00E94D2068F850F2D10E084FF60
:100A100025C06E0187E0C80ED11CE12CF12CB80175
:100A20000E2C02C0759567950A94E2F76170F60185
:100A300081916F010E94D206FFEFEF1AFF0A88E052
:100A4000E816F10461F7CE01DF91CF911F910F916C
:100A5000FF90EF90DF90CF900C945102B80184E0AA
:100A6000759567958A95E1F7CE010E94C3046F2DB5
:100A7000CE01DF91CF911F910F91FF90EF90DF900A
:100A8000CF900C94C30441E00E94F00481E090E018
:100A900008953FB7F8948091FD029091FE02A091D5
:100AA000FF02B091000326B5A89B05C02F3F19F0A7
:100AB0000196A11DB11D3FBFBA2FA92F982F8827DE
:100AC000820F911DA11DB11DBC01CD0142E0660F39
:100AD000771F881F991F4A95D1F7089540E0682F26
:100AE0008DED92E00C94F00490E0FC01EC55FF4F8A
:100AF0002491FC01E057FF4F8491882399F090E006
:100B0000880F991FFC01EA57FF4FA591B491FC0192
:100B1000E458FF4F859194918FB7F894EC91E22BB4
:100B2000EC938FBF0895CF92DF92EF92FF92DC019A
:100B3000A03282E0B8070CF03EC0B7FD06C0A53B6E
:100B4000B1052CF0A4EBB0E002C0A0E0B0E08091D1
:100B5000F60228E830E06901C81AD10887FDD3946D
:100B6000CC0CDD1CCC0CDD1C0D2C000CEE08FF08A1
:100B70008091F70228E532E0281B310987FD339583
:100B8000220F331F220F331FA901330F660B770B80
:100B90009A01AB012C193D094E095F090E942E0CE8
:100BA00024EB30E040E050E00E94040CC20ED31E63
:100BB000E41EF51ED6019091F5029C3098F58091C7
:100BC000F60248E850E0481B510987FD5395440F51
:100BD000551F440F551FA417B5078CF08091F702DD
:100BE00028E532E0281B310987FD3395220F331F9A
:100BF000220F331FAD012A173B070CF4A901425005
:100C00005109440F551F2FB7F894892F90E0FC012C
:100C1000EE0FFF1F8E0F9F1FFC01E854FD4F528304
:100C200041832FBFFF90EF90DF90CF9008958F9278
:100C30009F92AF92BF92CF92DF92EF92FF920E946B
:100C400049054B015C0188EEC82E83E0D82EE12CCB
:100C5000F12C0E944905DC01CB0188199909AA09E8
:100C6000BB09883E9340A105B10598F321E0C21A63
:100C7000D108E108F10888EE880E83E0981EA11CD7
:100C8000B11CC114D104E104F10419F7FF90EF90F5
:100C9000DF90CF90BF90AF909F908F9008954F922C
:100CA0005F926F927F928F929F92AF92BF92CF92FC
:100CB000DF92EF92FF920F931F93CF93DF93CDB705
:100CC000DEB7A1970FB6F894DEBF0FBECDBF8C0183
:100CD0006B01770FEE08FF08F7FE2FC0DC01ED91E6
:100CE000FC910190F081E02D6DE209955C012227D5
:100CF0003327A9012C193D094E095F0919A2FE01EC
:100D0000B1967F019AE0492E512C612C712CCA01B9
:100D1000B901A30192010E94360C605DD7016E9368
:100D20007D01211531054105510589F7BD01C80136
:100D30000E9469028A0D9B1D1EC0A701960119A27F
:100D4000FE01B1967F018AE0882E912CA12CB12C56
:100D5000CA01B901A50194010E94360C605DD7015A
:100D60006E937D01211531054105510589F7BD01BE
:100D7000C8010E946902A1960FB6F894DEBF0FBEAB
:100D8000CDBFDF91CF911F910F91FF90EF90DF903A
:100D9000CF90BF90AF909F908F907F906F905F901B
:100DA0004F90089590E0FC01E859FF4F2491FC0119
:100DB000EC55FF4F3491FC01E057FF4FE491EE23D7
:100DC00009F43CC0222339F1233091F038F421306A
:100DD000A9F0223001F584B58F7D12C0273091F043
:100DE0002830A1F02430B9F4809180008F7D03C0B9
:100DF000809180008F77809380000DC084B58F77BD
:100E000084BD09C08091B0008F7703C08091B0008D
:100E10008F7D8093B000F0E0EE0FFF1FE458FF4F8E
:100E2000A591B4919FB7F894611104C08C9130954D
:100E3000382302C0EC913E2B3C939FBF0895CF9383
:100E4000DF93823028F09091EC0298609093EC024E
:100E50008093F0021092F10280E48093F20280E12C
:100E60008093F30280E58093F4028091E1020E9476
:100E700074058091E2028F3F11F00E947405809109
:100E8000E3020E947405CDEDD2E09E012D5D32405B
:100E90008091EC0284FD03C084E090E002C088E011
:100EA00090E021962817390724F48E810E9474055A
:100EB000ECCF8BE39DE00197F1F760E08091E102D8
:100EC0000E94D20660E08091E3020E94D2068091E7
:100ED000E2028F3F19F060E00E94D2068091EC029E
:100EE00084FD20C063E08DED92E00E94C304CBE45A
:100EF000D6E4CE010197F1F763E08DED92E00E9418
:100F0000C3042197F1F763E08DED92E00E94C304E2
:100F100083E592E00197F1F762E08DED92E00E94A7
:100F2000C30415C080620E946E058BE496E40197AD
:100F3000F1F78091EC0280620E946E0583E592E0F9
:100F40000197F1F78091EC0280620E946E0580911A
:100F5000EC0280620E946E0584E08093ED028CE0DA
:100F60000E946E0581E00E946E058BE39FE1019770
:100F7000F1F782E08093EE0286E0DF91CF910C944E
:100F80006E051F920F920FB60F9211242F933F936D
:100F90008F939F93AF93BF938091F9029091FA0240
:100FA000A091FB02B091FC023091F80223E0230FE4
:100FB0002D3720F40196A11DB11D05C026E8230F91
:100FC0000296A11DB11D2093F8028093F90290931F
:100FD000FA02A093FB02B093FC028091FD02909173
:100FE000FE02A091FF02B09100030196A11DB11D68
:100FF0008093FD029093FE02A093FF02B093000342
:10100000BF91AF919F918F913F912F910F900FBE04
:101010000F901F901895789484B5826084BD84B534
:10102000816084BD85B5826085BD85B5816085BDE3
:1010300080916E00816080936E001092810080919B
:101040008100826080938100809181008160809323
:101050008100809180008160809380008091B10048
:1010600084608093B1008091B00081608093B00073
:1010700080917A00846080937A0080917A00826007
:1010800080937A0080917A00816080937A008091C9
:101090007A00806880937A001092C10082E00E94FA
:1010A0001F07E0911F02F091200282E08083E0910F
:1010B0001B02F0911C021082E0911D02F0911E02B1
:1010C0008FEC808310922702E0912302F09124029A
:1010D00086E08083E0912102F0912202808180618C
:1010E0008083E0912102F0912202808188608083D8
:1010F000E0912102F0912202808180688083E0915A
:101100002102F091220280818F7D80838DE00E94F8
:10111000740560E08DE00E94D2060E9417068DE003
:101120000E94740561E08DE00E94D2060E941706BD
:101130008AE00E94740561E08AE00E94D20688E09D
:101140000E94740561E088E00E94D20689E00E9456
:10115000740561E089E00E94D20687E00E94740570
:1011600061E087E00E94D2068091F5028C3008F0A1
:101170004FC080E00E9474058091F502E82FF0E0F6
:101180009F01220F331FE20FF31FE854FD4F9081A0
:10119000907C90831092F6021092F7026CE00E940D
:1011A000670C9CE0899FB001112440E050E09B0156
:1011B000240F351FF901EE0FFF1F2E0F3F1FF901FE
:1011C000E854FD4F908196FD16C04F5F5F4F4C3045
:1011D000510569F781110FC01092800082E0809361
:1011E00081001092850010928400B19A80916F0066
:1011F000826080936F00E091F502F0E0CF01880FEC
:10120000991FE80FF91FE854FD4F808180648083A7
:1012100080E090E00E94930511E068E6862E72E07F
:10122000772EBB24BA94E5EEAE2EF5EC9F2EA6E009
:101230006A2E0AEFB3E0CB2ED12C10939C01809242
:10124000BE0110929D011092BF0160E08CEA92E015
:101250000E941E029091BF01913208F040C080911F
:10126000E6018111FCCF7092E6011093E501B09286
:10127000E4011092E3019093E201AEE9B1E0E0EC09
:10128000F1E0981721F02D9121938F5FFACF109202
:10129000E1018091E101806D8093E1018091E001A5
:1012A000813069F41092E0018091E1018093BB00EC
:1012B0008091BC0083FDF8CF9092BC0002C0A09248
:1012C000BC008091E6018230E1F38091E4018F3F20
:1012D00031F08091E401803211F08091E4011092AC
:1012E0009D011092BF0110929C018091E601811135
:1012F000FCCF1093E6011093E501B092E401109247
:10130000E3016092E2011093E1018091E101806DBF
:101310008093E1018091E001813069F41092E00155
:101320008091E1018093BB008091BC0083FDF8CFE8
:101330009092BC0002C0A092BC008091E601813076
:10134000E1F38091E301873018F49091E30101C04B
:1013500097E0A0ECB1E0E9EEF1E080E0891721F040
:101360002D9121938F5FFACF1092E8018093E701CE
:101370008CEA92E00E94D5018F77982F92959F700A
:10138000D82F909FD00D11248CEA92E00E94D501B5
:101390009C01332744E0359527954A95E1F7F82ECF
:1013A000029FF00C11248CEA92E00E94D5019C016E
:1013B000332754E0359527955A95E1F7C82F029FBA
:1013C000C00D11248CEA92E00E94D5018CEA92E0D3
:1013D0000E94D5018CEA92E00E94D5018CEA92E04D
:1013E0000E94D5012C2F30E030930E0220930D0285
:1013F0008F2D90E090930C0280930B028D2F90E044
:1014000090930A02809309020E94170660E371E03C
:101410008FE092E00E947E0260910D0270910E02B8
:101420008FE092E00E944F066AE371E08FE092E065
:101430000E947E0260910B0270910C028FE092E09C
:101440000E944F066AE371E08FE092E00E947E0204
:101450006091090270910A028FE092E00E944F06AB
:101460006EE371E08FE092E00E946902C0910D028C
:10147000D0910E02CA30D105CCF160E08DE00E941F
:10148000D206C431D1052CF061E08DE00E94D20675
:1014900003C0CB30D10554F160E08AE00E94D2064F
:1014A000C331D1052CF061E08AE00E94D20603C06E
:1014B000CC30D105DCF060E089E00E94D206C23178
:1014C000D1052CF061E089E00E94D20603C0CD3046
:1014D000D10564F060E088E00E94D206C131D105F8
:1014E0002CF061E088E00E94D20603C0CB30D10529
:1014F000D4F180910B0290910C02B6010E94730C02
:10150000892B09F0E4C060E087E00E94D206C33175
:10151000D1052CF061E087E00E94D20646C0CB30B6
:10152000D10509F580910B0290910C02892B09F0ED
:101530003CC08091090290910A02892BB1F593E099
:10154000E92EF12C84EB90E00E9493050E9417068F
:1015500080E090E00E9493050E94170681E0E81A5F
:10156000F10881F722C0CF30D105F9F480910B0248
:1015700090910C02892BC9F48091090290910A0282
:10158000892B99F483E0E82EF12C84EB90E00E9403
:1015900093050E94170680E090E00E9493050E9448
:1015A000170691E0E91AF10881F7E1E08091F00275
:1015B0008111E0E0E195F0E0E352FD4F848980681D
:1015C0000E946E052A9734F460E070E08DED92E0A1
:1015D0000E944F0660910D0270910E028DED92E017
:1015E0000E944F0661E471E08DED92E00E947E0260
:1015F00080910B0290910C020A9734F460E070E045
:101600008DED92E00E944F0660910B0270910C02EA
:101610008DED92E00E944F0661E471E08DED92E065
:101620000E947E028091090290910A020A9734F486
:1016300060E070E08DED92E00E944F06609109023B
:1016400070910A028DED92E00E944F0663E471E012
:101650008DED92E00E947E02E091F002E23010F403
:10166000E15001C0E1E0F0E0E352FD4F8489806881
:101670000E946E056DE471E08DED92E00E947E02A5
:101680006BE070E08DED92E00E944F066AE471E03D
:101690008DED92E00E947E026FE070E08DED92E0B1
:1016A0000E944F0660E571E08DED92E00E947E029F
:1016B00063E070E08DED92E00E944F0663E571E01B
:1016C0008DED92E00E947E020E948901B6CD61E01C
:1016D0001BCF109212021092110288EE93E0A0E04C
:1016E000B0E08093130290931402A0931502B0937C
:1016F000160224E031E03093100220930F0225EC13
:1017000030E030931C0220931B0224EC30E0309335
:101710001E0220931D0220EC30E030932002209323
:101720001F0221EC30E0309322022093210222ECB0
:1017300030E0309324022093230226EC30E03093F3
:10174000260220932502109228021092290210925C
:101750002A0210922B021092AF021092AE028093D6
:10176000B0029093B102A093B202B093B30286E1AB
:1017700091E09093AD028093AC028091DC028C30BA
:10178000A0F491E0980F9093DC028093F50290E032
:10179000FC01EE0FFF1F8E0F9F1FFC01E854FD4F51
:1017A00088EB9BE09283818303C08FEF8093F502E7
:1017B0001092E0021092DF0288E291E09093DE0244
:1017C0008093DD028CE08093E1028FEF8093E20250
:1017D0008BE08093E30285E08093E40284E08093D1
:1017E000E50283E08093E60282E08093E7021092B4
:1017F000E8021092E9021092EA021092EB021092B3
:10180000EC0281E00C941F07052E97FB1EF4009458
:101810000E941B0C57FD07D00E94360C07FC03D01A
:101820004EF40C941B0C50954095309521953F4FEC
:101830004F4F5F4F089590958095709561957F4FBC
:101840008F4F9F4F08950E94580CA59F900DB49FF5
:10185000900DA49F800D911D11240895B7FF0C9445
:10186000230C0E94230C821B930B0895A1E21A2ED5
:10187000AA1BBB1BFD010DC0AA1FBB1FEE1FFF1F34
:10188000A217B307E407F50720F0A21BB30BE40B84
:10189000F50B661F771F881F991F1A9469F76095CB
:1018A0007095809590959B01AC01BD01CF01089585
:1018B000A29FB001B39FC001A39F700D811D112491
:1018C000911DB29F700D811D1124911D0895991BCA
:1018D00079E004C0991F961708F0961B881F7A9527
:1018E000C9F78095089597FB072E16F4009407D04A
:1018F00077FD09D00E94870C07FC05D03EF4909537
:1019000081959F4F0895709561957F4F0895AA1B0B
:10191000BB1B51E107C0AA1FBB1FA617B70710F0DA
:10192000A61BB70B881F991F5A95A9F7809590950C
:10193000BC01CD010895EE0FFF1F0590F491E02D3D
:10194000099481E090E0F8940C94A60CF894FFCFF1
:10195000000000001A018700B1006701E200C0002A
:10196000D400000000001E02F1014E02C501E90191
:10197000D501C60100000000430587004E024D025C
:10198000676F647A696E613A2000203A20000D0A80
:10199000003A00204B61726D20002069206F20000A
:0819A000202A00737970000099
:107E0000112484B714BE81FFF0D085E080938100F7
:107E100082E08093C00088E18093C10086E0809377
:107E2000C20080E18093C4008EE0C9D0259A86E02C
:107E300020E33CEF91E0309385002093840096BBD3
:107E4000B09BFECF1D9AA8958150A9F7CC24DD24C4
:107E500088248394B5E0AB2EA1E19A2EF3E0BF2EE7
:107E6000A2D0813461F49FD0082FAFD0023811F036
:107E7000013811F484E001C083E08DD089C08234E0
:107E800011F484E103C0853419F485E0A6D080C0E4
:107E9000853579F488D0E82EFF2485D0082F10E0AE
:107EA000102F00270E291F29000F111F8ED06801E7
:107EB0006FC0863521F484E090D080E0DECF843638
:107EC00009F040C070D06FD0082F6DD080E0C81688
:107ED00080E7D80618F4F601B7BEE895C0E0D1E017
:107EE00062D089930C17E1F7F0E0CF16F0E7DF06D8
:107EF00018F0F601B7BEE89568D007B600FCFDCFD4
:107F0000A601A0E0B1E02C9130E011968C91119780
:107F100090E0982F8827822B932B1296FA010C0160
:107F200087BEE89511244E5F5F4FF1E0A038BF0790
:107F300051F7F601A7BEE89507B600FCFDCF97BE46
:107F4000E89526C08437B1F42ED02DD0F82E2BD052
:107F50003CD0F601EF2C8F010F5F1F4F84911BD097
:107F6000EA94F801C1F70894C11CD11CFA94CF0C13
:107F7000D11C0EC0853739F428D08EE10CD085E9AC
:107F80000AD08FE07ACF813511F488E018D01DD067
:107F900080E101D065CF982F8091C00085FFFCCF94
:107FA0009093C60008958091C00087FFFCCF809118
:107FB000C00084FD01C0A8958091C6000895E0E648
:107FC000F0E098E1908380830895EDDF803219F02E
:107FD00088E0F5DFFFCF84E1DECF1F93182FE3DFCA
:107FE0001150E9F7F2DF1F91089580E0E8DFEE27F6
:047FF000FF270994CA
:027FFE00040479
:0400000300007E007B
:00000001FF
