:100000000C945D000C9485000C9485000C94850084
:100010000C9485000C9485000C9485000C9485004C
:100020000C9485000C9485000C9485000C94260596
:100030000C9485000C9485000C9485000C9485002C
:100040000C94E7080C9485000C94A6020C94800292
:100050000C9485000C9485000C9485000C9485000C
:100060000C94FC030C9485000000000800020100C1
:100070000003040700000000000000000000000072
:10008000250028002B0000000000240027002A0083
:10009000040404040404040402020202020203032E
:1000A0000303030301020408102040800102040836
:1000B00010200102040810209A0B11241FBECFEF5C
:1000C000D8E0DEBFCDBF11E0A0E0B1E0EEE7F9E19E
:1000D00002C005900D92AA35B107D9F723E0AAE531
:1000E000B1E001C01D92A930B207E1F710E0CDE503
:1000F000D0E004C02197FE010E94B20CCC35D1079C
:10010000C9F70E9431090C94BD0C0C940000CF92E9
:10011000DF92EF92FF920F931F93CF93DF936C01C7
:100120007A018B01C0E0D0E0CE15DF0581F0D80167
:100130006D918D01D601ED91FC910190F081E02D42
:10014000C6010995892B11F02196EECF7E01C701DA
:10015000DF91CF911F910F91FF90EF90DF90CF90A3
:100160000895FC01538D448D252F30E0842F90E0BD
:10017000821B930B541710F0CF96089501970895A2
:10018000FC01918D828D981761F0828DDF01A80F9F
:10019000B11D5D968C91928D9F5F9F73928F90E0C1
:1001A00008958FEF9FEF0895FC01918D828D981730
:1001B00031F0828DE80FF11D858D90E008958FEF6D
:1001C0009FEF0895FC01918D228D892F90E0805C36
:1001D0009F4F821B91098F739927089581E192E0C7
:1001E0000E94E20021E0892B09F420E0822F08958B
:1001F000FC01848DDF01A80FB11DA35ABF4F2C91C4
:10020000848D90E001968F739927848FA689B78992
:100210002C93A089B1898C91837080648C93938D89
:10022000848D981306C00288F389E02D80818F7D2C
:1002300080830895EF92FF920F931F93CF93DF93E4
:10024000EC0181E0888F9B8D8C8D981305C0E88927
:10025000F989808185FD26C0F62E0B8D10E00F5F99
:100260001F4F0F731127E02E8C8DE8120CC00FB6B4
:1002700007FCFACFE889F989808185FFF5CFCE01A7
:100280000E94F800F1CF8B8DFE01E80FF11DE35ABB
:10029000FF4FF0829FB7F8940B8FEA89FB8980812A
:1002A00080620AC09FB7F894EE89FF896083E8896D
:1002B000F98980818370806480839FBF81E090E0B2
:1002C000DF91CF911F910F91FF90EF900895CF9301
:1002D000DF93EC01888D8823C9F0EA89FB8980814E
:1002E00085FD05C0A889B9898C9186FD0FC00FB620
:1002F00007FCF5CF808185FFF2CFA889B9898C9161
:1003000085FFEDCFCE010E94F800E7CFDF91CF91BE
:10031000089580E090E0892B29F00E94EE00811181
:100320000C940000089585ED8093BC008091BC0082
:1003300084FDFCCF1092E801089540917B01262FA7
:1003400030E0240F311D21323105DCF42091E80129
:100350002430C9F4FC0180E090E0861758F4309115
:100360007B012191DC01A55ABE4FA30FB11D2C9337
:100370000196F3CF80917B01680F60937B0180E051
:10038000089581E0089582E008950895E091EA01DA
:100390008091E901E81730F4F0E0E551FE4F8081EB
:1003A00090E008958FEF9FEF08959091EA0180917A
:1003B000E901981750F4E92FF0E0E551FE4F208154
:1003C00030E09F5F9093EA0102C02FEF3FEFC90139
:1003D00008958091E90190E02091EA01821B910942
:1003E0000895CF92DF92EF92FF920F931F93CF93D6
:1003F000DF937C01CB018A0120919E01222389F0A9
:10040000EB016B01C40ED51ECC15DD0569F06991B9
:10041000D701ED91FC910190F081E02DC701099584
:10042000F3CF642F0E949D01C801DF91CF911F91EE
:100430000F91FF90EF90DF90CF900895CF93DF93CF
:100440001F92CDB7DEB7698320919E012223D1F0A0
:100450002091C101203240F021E030E0FC013383E3
:10046000228380E090E015C080919F01E82FF0E0AA
:10047000E056FE4F998190838F5F80939F01809318
:10048000C10105C061E0CE0101960E949D0181E09D
:1004900090E00F90DF91CF910895089580E090E073
:1004A0000895CF93DF93EC0160E08E810E94BE0738
:1004B00061E08E810E94BE0760E08E810E94BE07CF
:1004C0008BE891E00197F1F7DF91CF9108950E94B9
:1004D000B80C6115710579F0FB0101900020E9F776
:1004E0003197AF01461B570BDC01ED91FC91028067
:1004F000F381E02D099480E090E008950C94690266
:100500001F920F920FB60F9211242F933F934F9388
:100510005F936F937F938F939F93AF93BF93EF936B
:10052000FF9381E192E00E94F800FF91EF91BF916B
:10053000AF919F918F917F916F915F914F913F917B
:100540002F910F900FBE0F901F9018951F920F9232
:100550000FB60F9211242F938F939F93EF93FF93D6
:10056000E0912102F09122028081E0912702F09136
:10057000280282FD12C0908180912A028F5F8F73C2
:1005800020912B02821751F0E0912A02F0E0EF5EF9
:10059000FD4F958F80932A0201C08081FF91EF91DA
:1005A0009F918F912F910F900FBE0F901F901895D4
:1005B000CF92DF92EF92FF920F931F93CF93DF932F
:1005C00000D000D000D0CDB7DEB781E080939E018F
:1005D00088E68093C00110929F011092C10160E0F3
:1005E0008EEA92E00E941E029091C101913208F0C1
:1005F00044C08091E8018111FCCF82E08093E80142
:1006000081E08093E7018FEF8093E6011092E5018E
:100610009093E401A0EAB1E0E2ECF1E080E0981709
:1006200021F02D9121938F5FFACF1092E3018091F9
:10063000E301806D8093E3018091E201813061F4F8
:100640001092E2018091E3018093BB008091BC0095
:1006500083FDF8CF85EC01C085EE8093BC008091CE
:10066000E8018230E1F38091E6018F3F31F0809123
:10067000E601803211F08091E60110929F01109204
:10068000C10110929E018091E8018111FCCF81E0AF
:100690008093E8018093E7019FEF9093E601109229
:1006A000E50196E09093E4018093E3018091E301FA
:1006B000806D8093E3018091E201813061F41092BA
:1006C000E2018091E3018093BB008091BC0083FD37
:1006D000F8CF85EC01C085EE8093BC008091E801E5
:1006E0008130E1F38091E501873018F49091E501C4
:1006F00001C097E0A2ECB1E0EBEEF1E080E08917F9
:1007000021F02D9121938F5FFACF1092EA0180930F
:10071000E9018EEA92E00E94D5018F77982F929599
:100720009F701AEF082F919F000D11248EEA92E01E
:100730000E94D5019C01332794E0359527959A9521
:10074000E1F7F82E129FF00C11248EEA92E00E943D
:10075000D5019C01332744E0359527954A95E1F76B
:10076000E82E129FE00C11248EEA92E00E94D5013F
:100770008EEA92E00E94D5019C01332754E0359522
:1007800027955A95E1F7D82E129FD00C11248EEAA6
:1007900092E00E94D5019C01332764E035952795AE
:1007A0006A95E1F7C82E129FC00C11248EEA92E0E0
:1007B0000E94D5019C01332774E0359527957A95E1
:1007C000E1F7482F129F400D1124242F3C2D4D2D71
:1007D0005E2D6F2D702F80E090E026960FB6F89476
:1007E000DEBF0FBECDBFDF91CF911F910F91FF9064
:1007F000EF90DF90CF9008951F920F920FB60F9257
:1008000011242F933F934F935F936F937F938F9315
:100810009F93AF93BF93EF93FF938091B900887F2D
:10082000803609F49CC068F5883209F45BC090F406
:10083000803109F454C038F4882309F4F2C08830B8
:1008400009F44DC0F2C0883109F44CC0803209F47B
:100850005DC0EBC0803409F468C048F4803309F40B
:1008600055C0883309F0E1C08093E601D4C08035DB
:1008700009F44FC0883509F45DC0883409F0D5C04B
:10088000D2C0883909F4C3C0A8F4883709F467C016
:1008900038F4883609F463C0803709F460C0C5C0F5
:1008A000883809F4B4C0803909F45FC0803809F091
:1008B000BCC05BC0803B09F484C038F4803A09F4C2
:1008C00066C0883A09F47DC0B0C0803C09F4A3C07A
:1008D000883C09F4A0C0883B09F486C0A6C080917A
:1008E000E30110C09091E5018091E401981770F543
:1008F000E091E50181E08E0F8093E501F0E0EE5399
:10090000FE4F80818093BB0085EC82C08093E6011E
:100910008AC0E091E50181E08E0F8093E50180912E
:10092000BB00F0E0EE53FE4F80839091E501809193
:10093000E4016AC0E091E50181E08E0F8093E5015A
:100940008091BB00F0E0EE53FE4F80838091E70181
:10095000811169C081E08093E20184EA5DC083E097
:100960008093E80110929D01CFCF80919D0180324C
:1009700008F04DC0E0919D0181E08E0F80939D01B4
:100980008091BB00F0E0E358FE4F8083BDCF85EC43
:100990008093BC001092E80180919D01803230F478
:1009A000E0919D01F0E0E358FE4F108260919D01BF
:1009B00070E08DE791E0E0E0F0E0099510929D0194
:1009C00034C084E08093E80110927C0110927B0196
:1009D000E0E0F0E0099580917B01811105C081E0A4
:1009E00080937B0110925B01E0917C0181E08E0F8E
:1009F00080937C01F0E0E55AFE4F80818093BB003C
:100A000090917C0180917B01981708F47DCF85E857
:100A10008093BC000AC085EC8093BC001092E80172
:100A200004C01092E6010E949301FF91EF91BF91E3
:100A3000AF919F918F917F916F915F914F913F9176
:100A40002F910F900FBE0F901F9018951F920F922D
:100A50000FB60F9211242F933F934F935F936F9391
:100A60007F938F939F93AF93BF93EF93FF93809167
:100A70005A0187FF05C010928500109284001BC0A8
:100A800020915A01022E000C330B8091DE0290E07F
:100A90002817390784F480915A01082E000C990B0D
:100AA000FC01EE0FFF1F8E0F9F1FFC01E654FD4F50
:100AB000808186FD15C080915A018F5F80935A0115
:100AC00020915A01022E000C330B8091DE0290E03F
:100AD00028173907C4F480915A018C3064F113C08F
:100AE00080915A01082E000C990BFC01EE0FFF1F9C
:100AF0008E0F9F1FFC01E654FD4F808160E08F73D5
:100B00000E94BE07D8CF8091840090918500049602
:100B100080349C4918F480E49CE905C080918400ED
:100B200090918500049690938900809388008FEFC0
:100B300080935A013BC020918400309185008091C0
:100B40005A01082E000C990BFC01EE0FFF1F8E0FAF
:100B50009F1FFC01E654FD4F81819281820F931FFC
:100B6000909389008093880080915A01082E000C90
:100B7000990BFC01EE0FFF1F8E0F9F1FFC01E65427
:100B8000FD4F808186FF12C080915A01082E000C13
:100B9000990BFC01EE0FFF1F8E0F9F1FFC01E65407
:100BA000FD4F808161E08F730E94BE07FF91EF913E
:100BB000BF91AF919F918F917F916F915F914F9175
:100BC0003F912F910F900FBE0F901F901895CF92CD
:100BD000DF92EF92FF920F931F93CF93DF936C01FD
:100BE0007C0187E0E80EF11CC0E0D0E0062F10E0A9
:100BF000B8010C2E02C0759567950A94E2F76170F2
:100C0000F70181917F010E94BE072196C430D10572
:100C100079F7C601DF91CF911F910F91FF90EF906F
:100C2000DF90CF900C945102CF92DF92EF92FF921F
:100C30000F931F93CF93DF93EC01F62E642F8C81DB
:100C40000E94BE078D818F3F19F060E00E94BE07B1
:100C50008F850F2D10E084FF25C06E0187E0C80E40
:100C6000D11CE12CF12CB8010E2C02C075956795B2
:100C70000A94E2F76170F60181916F010E94BE074C
:100C8000FFEFEF1AFF0A88E0E816F10461F7CE01E2
:100C9000DF91CF911F910F91FF90EF90DF90CF9058
:100CA0000C945102B80184E0759567958A95E1F737
:100CB000CE010E94E7056F2DCE01DF91CF911F91EC
:100CC0000F91FF90EF90DF90CF900C94E70541E0FB
:100CD0000E94140681E090E008953FB7F894809157
:100CE000050390910603A0910703B091080326B570
:100CF000A89B05C02F3F19F00196A11DB11D3FBF54
:100D0000BA2FA92F982F8827820F911DA11DB11DE1
:100D1000BC01CD0142E0660F771F881F991F4A95DD
:100D2000D1F7089540E0682F8FED92E00C941406FF
:100D300090E0FC01EC55FF4F2491FC01E057FF4F80
:100D40008491882399F090E0880F991FFC01EA575D
:100D5000FF4FA591B491FC01E458FF4F8591949108
:100D60008FB7F894EC91E22BEC938FBF0895CF925C
:100D7000DF92EF92FF92DC01A03282E0B8070CF024
:100D80003EC0B7FD06C0A53BB1052CF0A4EBB0E01A
:100D900002C0A0E0B0E08091FE0228E830E06901E6
:100DA000C81AD10887FDD394CC0CDD1CCC0CDD1CFB
:100DB0000D2C000CEE08FF088091FF0228E532E0C0
:100DC000281B310987FD3395220F331F220F331F54
:100DD000A901330F660B770B9A01AB012C193D0962
:100DE0004E095F090E946D0C24EB30E040E050E0BA
:100DF0000E94430CC20ED31EE41EF51ED601909134
:100E0000FD029C3098F58091FE0248E850E0481BB6
:100E1000510987FD5395440F551F440F551FA417C3
:100E2000B5078CF08091FF0228E532E0281B3109DC
:100E300087FD3395220F331F220F331FAD012A1771
:100E40003B070CF4A90142505109440F551F2FB71D
:100E5000F894892F90E0FC01EE0FFF1F8E0F9F1F6B
:100E6000FC01E654FD4F528341832FBFFF90EF906A
:100E7000DF90CF9008954F925F926F927F928F9202
:100E80009F92AF92BF92CF92DF92EF92FF920F9319
:100E90001F93CF93DF93CDB7DEB7A1970FB6F8942A
:100EA000DEBF0FBECDBF8C016B01770FEE08FF08D0
:100EB000F7FE2FC0DC01ED91FC910190F081E02D57
:100EC0006DE209955C0122273327A9012C193D0900
:100ED0004E095F0919A2FE01B1967F019AE0492EE1
:100EE000512C612C712CCA01B901A30192010E94FD
:100EF000750C605DD7016E937D01211531054105AB
:100F0000510589F7BD01C8010E9469028A0D9B1D28
:100F10001EC0A701960119A2FE01B1967F018AE0C9
:100F2000882E912CA12CB12CCA01B901A5019401E4
:100F30000E94750C605DD7016E937D01211531050E
:100F40004105510589F7BD01C8010E946902A196BA
:100F50000FB6F894DEBF0FBECDBFDF91CF911F91CA
:100F60000F91FF90EF90DF90CF90BF90AF909F9048
:100F70008F907F906F905F904F90089590E0FC016C
:100F8000E859FF4F2491FC01EC55FF4F3491FC01CF
:100F9000E057FF4FE491EE2309F43CC0222339F1DE
:100FA000233091F038F42130A9F0223001F584B5D6
:100FB0008F7D12C0273091F02830A1F02430B9F491
:100FC000809180008F7D03C0809180008F77809317
:100FD00080000DC084B58F7784BD09C08091B000BA
:100FE0008F7703C08091B0008F7D8093B000F0E0D8
:100FF000EE0FFF1FE458FF4FA591B4919FB7F894EF
:10100000611104C08C913095382302C0EC913E2BC5
:101010003C939FBF0895CF93DF93823028F0909147
:10102000EE0298609093EE028093F2021092F30227
:1010300080E48093F40280E18093F50280E5809360
:10104000F6028091E3020E9498068091E4028F3FAD
:1010500011F00E9498068091E5020E949806CFED5B
:10106000D2E09E012F5D32408091EE0284FD03C0EC
:1010700084E090E002C088E090E0219628173907CC
:1010800024F48E810E949806ECCF8BE39DE00197BB
:10109000F1F760E08091E3020E94BE0760E080917A
:1010A000E5020E94BE078091E4028F3F19F060E0E4
:1010B0000E94BE078091EE0284FD20C063E08FEDA8
:1010C00092E00E94E705CBE4D6E4CE010197F1F768
:1010D00063E08FED92E00E94E7052197F1F763E06E
:1010E0008FED92E00E94E70583E592E00197F1F72A
:1010F00062E08FED92E00E94E70515C080620E94D9
:1011000092068BE496E40197F1F78091EE028062FB
:101110000E94920683E592E00197F1F78091EE023A
:1011200080620E9492068091EE0280620E94920686
:1011300084E08093EF028CE00E94920681E00E949E
:1011400092068BE39FE10197F1F782E08093F00232
:1011500086E0DF91CF910C9492068F929F92AF928E
:10116000BF92CF92DF92EF92FF926B017C010E94BF
:101170006D064B015C01C114D104E104F104F1F0EE
:101180000E946D06DC01CB0188199909AA09BB09E7
:10119000883E9340A105B10570F321E0C21AD10841
:1011A000E108F10888EE880E83E0981EA11CB11CAE
:1011B000C114D104E104F10419F7DDCFFF90EF90E1
:1011C000DF90CF90BF90AF909F908F9008951F9227
:1011D0000F920FB60F9211242F933F938F939F93EB
:1011E000AF93BF938091010390910203A0910303F9
:1011F000B09104033091000323E0230F2D3720F436
:101200000196A11DB11D05C026E8230F0296A11D60
:10121000B11D209300038093010390930203A093D8
:101220000303B09304038091050390910603A091FA
:101230000703B09108030196A11DB11D809305031A
:1012400090930603A0930703B0930803BF91AF9157
:101250009F918F913F912F910F900FBE0F901F90F4
:101260001895789484B5826084BD84B5816084BD0E
:1012700085B5826085BD85B5816085BD80916E0034
:10128000816080936E001092810080918100826065
:1012900080938100809181008160809381008091A2
:1012A00080008160809380008091B1008460809391
:1012B000B1008091B00081608093B00080917A008D
:1012C000846080937A0080917A00826080937A00B3
:1012D00080917A00816080937A0080917A008068A2
:1012E00080937A001092C10082E00E940B08E09186
:1012F0002102F091220282E08083E0911D02F091B0
:101300001E021082E0911F02F09120028FEC808378
:1013100010922902E0912502F091260286E0808356
:10132000E0912302F0912402808180618083E0912A
:101330002302F0912402808188608083E09123025F
:10134000F0912402808180688083E0912302F091F3
:10135000240280818F7D80838DE00E94980661E069
:101360008DE00E94BE078AE00E94980661E08AE054
:101370000E94BE0788E00E94980661E088E00E9413
:10138000BE0789E00E94980661E089E00E94BE07DE
:101390008DE00E9498068091FD028C3008F050C0CC
:1013A00089E00E9498068091FD02E82FF0E09F01FD
:1013B000220F331FE20FF31FE654FD4F9081907C04
:1013C000996090831092FE021092FF026CE00E94DE
:1013D000A60C9CE0899FB001112440E050E09B01E5
:1013E000240F351FF901EE0FFF1F2E0F3F1FF901CC
:1013F000E654FD4F908196FD16C04F5F5F4F4C3015
:10140000510569F781110FC01092800082E080932E
:1014100081001092850010928400B19A80916F0033
:10142000826080936F00E091FD02F0E0CF01880FB1
:10143000991FE80FF91FE654FD4F80818064808377
:1014400080E090E00E94B7060E94D8022093F70245
:101450003093F8024093F9025093FA026093FB0232
:101460007093FC02852F90E09093100280930F02FE
:10147000862F90E090930E0280930D02872F90E0CC
:1014800090930C0280930B0264EF71E080E090E097
:101490000E94AD0860E371E081E192E00E947E026B
:1014A00060910F027091100281E192E00E943B076F
:1014B0006AE371E081E192E00E947E0260910D0298
:1014C00070910E0281E192E00E943B076AE371E0B5
:1014D00081E192E00E947E0260910B0270910C0209
:1014E00081E192E00E943B076EE371E081E192E0CE
:1014F0000E94690261E08DE00E94BE0764EF71E026
:1015000080E090E00E94AD0860E08DE00E94BE07A0
:10151000C0910F02D0911002C630D10511F460E0E5
:1015200004C0C231D10529F461E08DE00E94BE07FC
:1015300037C0C730D10511F460E004C0C331D10514
:1015400029F461E08AE00E94BE0754C0CA30D10588
:1015500039F580910D0290910E02892B09F0DCC0C3
:1015600080910B0290910C02892B09F0D5C0C3E049
:10157000D0E084EB90E00E94B70668EE73E080E074
:1015800090E00E94AD0880E090E00E94B70668EE0F
:1015900073E080E090E00E94AD08219751F7BCC055
:1015A000CF30D10539F580910D0290910E02892B33
:1015B00009F0B2C080910B0290910C02892B09F0C6
:1015C000ABC0C3E0D0E084EB90E00E94B70668EEC9
:1015D00073E080E090E00E94AD0880E090E00E941F
:1015E000B70668EE73E080E090E00E94AD082197B6
:1015F00051F792C0E1E08091F2028111E0E0E195C3
:10160000F0E0E152FD4F848980680E9492062A979B
:1016100034F460E070E08FED92E00E943B0760914F
:101620000F02709110028FED92E00E943B0761E47F
:1016300071E08FED92E00E947E0280910D02909108
:101640000E020A9734F460E070E08FED92E00E94A1
:101650003B0760910D0270910E028FED92E00E94A7
:101660003B0761E471E08FED92E00E947E02809181
:101670000B0290910C020A9734F460E070E08FED59
:1016800092E00E943B0760910B0270910C028FED7B
:1016900092E00E943B0763E471E08FED92E00E94CC
:1016A0007E02E091F202E23010F4E15001C0E1E08C
:1016B000F0E0E152FD4F848980680E9492066FE459
:1016C00071E08FED92E00E947E026AE070E08FEDA3
:1016D00092E00E943B076CE471E08FED92E00E9483
:1016E0007E026FE070E08FED92E00E943B0762E5C2
:1016F00071E08FED92E00E947E0263E070E08FED7A
:1017000092E00E943B0765E571E08FED92E00E9458
:101710007E020E94890198CEE1E08091F20281115F
:10172000E0E0E195F0E0E152FD4F848980680E949D
:10173000920675CF109214021092130288EE93E075
:10174000A0E0B0E08093150290931602A0931702D8
:10175000B093180224E031E030931202209311027A
:1017600025EC30E030931E0220931D0224EC30E083
:101770003093200220931F0220EC30E030932202AD
:101780002093210221EC30E03093240220932302A5
:1017900022EC30E0309326022093250226EC30E044
:1017A000309328022093270210922A0210922B02D3
:1017B00010922C0210922D021092B1021092B002DF
:1017C0008093B2029093B302A093B402B093B50297
:1017D00086E191E09093AF028093AE028091DE02A9
:1017E0008C30A0F491E0980F9093DE028093FD027C
:1017F00090E0FC01EE0FFF1F8E0F9F1FFC01E654CF
:10180000FD4F88EB9BE09283818303C08FEF809331
:10181000FD020E94D8022093F7023093F802409311
:10182000F9025093FA026093FB027093FC0210924B
:10183000E2021092E10288E291E09093E00280934C
:10184000DF028CE08093E3028FEF8093E4028BE071
:101850008093E50285E08093E60284E08093E702CE
:1018600083E08093E80282E08093E9021092EA022A
:101870001092EB021092EC021092ED021092EE0226
:1018800081E00C940B08052E97FB1EF400940E9437
:101890005A0C57FD07D00E94750C07FC03D04EF47C
:1018A0000C945A0C50954095309521953F4F4F4FD1
:1018B0005F4F089590958095709561957F4F8F4FFC
:1018C0009F4F08950E94970CA59F900DB49F900D77
:1018D000A49F800D911D11240895B7FF0C94620CF4
:1018E0000E94620C821B930B0895A1E21A2EAA1B80
:1018F000BB1BFD010DC0AA1FBB1FEE1FFF1FA217C0
:10190000B307E407F50720F0A21BB30BE40BF50BBC
:10191000661F771F881F991F1A9469F76095709545
:10192000809590959B01AC01BD01CF010895A29FC8
:10193000B001B39FC001A39F700D811D1124911DA3
:10194000B29F700D811D1124911D0895991B79E09E
:1019500004C0991F961708F0961B881F7A95C9F73F
:1019600080950895EE0FFF1F0590F491E02D0994E6
:0E19700081E090E0F8940C94BD0CF894FFCF49
:10197E00000000001A018700B1006701E200C000FC
:10198E00D400000000001E02F1014E02C501E90163
:10199E00D501C60100000000670687004E024D0209
:1019AE00676F647A696E613A2000203A20000D0A52
:1019BE00003A00204B61726D696520002069206F2E
:0A19CE002000202A00737970000049
:00000001FF
